S01000005761746368446F672E7372656303
S11300000C9434000C9446000C9446000C94460066
S11300100C9446000C9446000C9446000C94460044
S11300200C9446000C9446000C9446000C94E50194
S11300300C9446000C9446000C940D020C9446005B
S11300400C9446000C9446000C9446000C94460014
S11300500C9446000C9446000C9446000C94460004
S11300600C9446000C94460011241FBECFEFD8E038
S1130070DEBFCDBF21E0A0E0B1E001C01D92AA34F3
S1130080B207E1F70E94D2000C9434020C940000F1
S1130090CF93DF931F92CDB7DEB7698369B1E1E0F7
S11300A0F0E0DF0102C0AA0FBB1F8A95E2F7CD0181
S11300B070E08623972361E0892B09F460E0FA015C
S11300C08081681791F080E285B978B181E090E091
S11300D0098002C0880F991F0A94E2F7872B88B918
S11300E06083C9010E94C30112C0C9010E946D014D
S11300F0882369F015B881E090E09093140180930F
S11301001301CE01019690933C0180933B010F9023
S1130110DF91CF9108958130A9F058F08330D1F464
S113012081E080930201439882E291E00E94C3013E
S113013011C081E08093160140988AE291E00E9408
S1130140C30108C081E080931701419882E391E0E4
S11301500E94C30183E091E00E94C301089583E0FB
S113016091E00E946D018823A9F080910201882307
S113017019F0439A1092020180911601882319F014
S1130180409A1092160180911701882319F0419A20
S113019010921701089589B183FB882780F9809311
S11301A0450108951AB88FEF87B988B980E284B9F8
S11301B085B90E94550178941092010110920001B2
S11301C0109214011092130110926E001092850087
S11301D0109284000E94CB0048E55BE160E070E08F
S11301E082E291E00E94BD0148E55BE160E070E0DD
S11301F08AE291E00E94BD0148E55BE160E070E0C5
S113020082E391E00E94BD0140ED57E060E070E0C0
S11302108DE391E00E94BD0140ED57E060E070E0A5
S11302208AE191E00E94BD0140ED57E060E070E09A
S11302308BE091E00E94BD014AEF50E060E070E085
S113024083E091E00E94BD018AE291E00E949A015C
S1130250882321F12AE131E045E451E060E083E0C4
S11302600E94480080911301909114010197D1F4E8
S113027080E00E948B00109214011092130189B146
S113028083FB882780F98093450142EC51E060E0CC
S113029070E08AE191E00E94BD0104C08AE191E02E
S11302A00E94C3010E94AF00CFCF85E085BD80933B
S11302B0810081E085BB86BB82E080936F008FEF75
S11302C087BD80E190E0909389008093880016BCFC
S11302D0109285001092840008950F931F93FC01DF
S11302E08091460190914701A0914801B091490144
S11302F024813581AC01421B530B9A0122F444271B
S11303005527421B530B052E000C660B770B0081FF
S1130310118122813381041715072607370730F42A
S113032084839583A683B78381E001C080E01F9115
S11303300F9108950F931F93FC0120914601309172
S1130340470184819581281B390BA90122F4442794
S11303505527421B530B052E000C660B770B81E0CF
S1130360008111812281338104171507260737077D
S113037008F080E01F910F910895FC0140835183A0
S113038062837383089540914601509147016091BF
S1130390480170914901FC01448355836683778346
S11303A008958091460190914701A0914801B09130
S11303B049010196A11DB11D809346019093470107
S11303C0A0934801B093490108951F920F920FB66C
S11303D00F9211242F933F934F935F936F937F93C7
S11303E08F939F93AF93BF93EF93FF9310928500E6
S11303F0109284000E94D101FF91EF91BF91AF91BF
S11304009F918F917F916F915F914F913F912F9128
S11304100F900FBE0F901F9018951F920F920FB65A
S11304200F9211242F933F934F935F936F937F9376
S11304308F939F93AF93BF93EF93FF9316BC81E089
S113044085BB0E94D101FF91EF91BF91AF919F9124
S11304508F917F916F915F914F913F912F910F9069
S10F04600FBE0F901F901895F894FFCF6A
S9030000FC
