S01000005761746368446F672E7372656303
S11300000C9434000C9446000C9446000C94460066
S11300100C9446000C9446000C9446000C94460044
S11300200C9446000C9446000C9446000C94620018
S11300300C9446000C9446000C9446000C94460024
S11300400C9446000C9446000C9446000C94460014
S11300500C9446000C9446000C9446000C94460004
S11300600C9446000C94460011241FBECFEFD8E038
S1130070DEBFCDBF21E0A0E0B1E001C01D92A231FE
S1130080B207E1F70E94F2000C94B3010C94000053
S113009085E085BD8093810081E085BB86BB82E0DD
S11300A080936F0089E09DE390938900809388009A
S11300B090938B0080938A0016BC10928500109256
S11300C0840008951F920F920FB60F9211248F93FC
S11300D09F93109285001092840095B180E1892746
S11300E085B99F918F910F900FBE0F901F90189517
S11300F0ABB1E1E0F0E0082E02C0EE0FFF1F0A945E
S1130100E2F7B0E0EA23FB2391E0EF2B09F490E05F
S113011094131AC0409184005091850042175307EC
S1130120E8F021E02093030170E070930D016093E7
S11301300C0140918400509185002091060130917A
S11301400701240F351F0AC0409184005091850097
S11301502091060130910701240F351F833029F4C3
S113016030930F0120930E010DC0823029F4309397
S113017005012093040106C0843021F43093110159
S113018020931001892F0895833039F484E991E193
S113019090930701809306010FC0811107C08AE87C
S11301A092E0909307018093060106C08AE892E0EA
S11301B0909307018093060118B816BC86B5893C54
S11301C0E8F38FEF88B981E080930B0180930901F4
S11301D080930A018093080116BC10928500109246
S11301E0840008951AB890E294B98FEF87B995B94D
S11301F088B90E9448008BB183FB882780F98093DB
S113020009018BB182FB882780F9809308018BB1A7
S11302108295817080930A0181E080930B01109292
S11302200001109203018AE892E090930701809301
S11302300601E4E8F0E0808191818C509E4F909318
S11302400F0180930E01808191818C509E4F909379
S1130250050180930401808191818C509E4F90937D
S11302601101809310010CE011E0C4E8D0E080910A
S1130270030181113CC080910B01811124C02091A4
S11302800E0130910F014091090160E083E00E946A
S113029078008093090180910301811128C0809125
S11302A00B0181112AC02091040130910501409174
S11302B0080163E082E00E94780080930801809145
S11302C00301811114C080910B0181111BC0209185
S11302D010013091110140910A0161E084E00E9413
S11302E0780080930A0180910301882331F0F8019A
S11302F080810E94C4001092030180910B01882325
S113030009F4B5CF288139818091060190910701C4
S1130310280F391F8881998182179307D8F3109287
S11303200B0181E0809309018093080180930A0105
S113033019821882888199818C509E4F90930F0165
S113034080930E01888199818C509E4F9093050172
S113035080930401888199818C509E4F9093110160
S10D03608093100184CFF894FFCFBE
S9030000FC
